:020000040800F2
:10000000F00C002089010008491F0008C91D0008E4
:10001000451F0008CD020008412C00080000000028
:10002000000000000000000000000000792000082F
:100030001D030008000000004D2000088F2000086C
:10004000A3010008A3010008A3010008A301000800
:10005000A3010008A3010008A3010008A3010008F0
:10006000A3010008A3010008A3010008A3010008E0
:10007000A3010008A3010008A3010008A3010008D0
:10008000D1020008E1020008A3010008A301000852
:10009000A3010008A3010008A3010008A3010008B0
:1000A000A3010008A3010008A3010008A3010008A0
:1000B000A3010008F920000809210008A301000895
:1000C000A3010008A3010008A3010008A301000880
:1000D000A3010008A3010008C1270008A30100082C
:1000E000A3010008A3010008A301000800F002F822
:1000F00000F03AF80AA090E8000C82448344AAF188
:100100000107DA4501D100F02FF8AFF2090EBAE885
:100110000F0013F0010F18BFFB1A43F0010318473B
:100120007C2C00009C2C0000103A24BF78C878C1B9
:10013000FAD8520724BF30C830C144BF04680C60ED
:10014000704700000023002400250026103A28BF35
:1001500078C1FBD8520728BF30C148BF0B60704739
:100160001FB51FBD10B510BD00F058F81146FFF7C0
:10017000F7FF02F0A7FD00F076F803B4FFF7F2FFF7
:1001800003BC00F07DF8000009488047094800479B
:10019000FEE7FEE7FEE7FEE7FEE7FEE7FEE7FEE737
:1001A000FEE7FEE704480549054A064B7047000094
:1001B000F7200008ED000008F0060020F00C0020F9
:1001C000F0080020F00800204FF0000200B51346B0
:1001D00094469646203922BFA0E80C50A0E80C5067
:1001E000B1F12001BFF4F7AF090728BFA0E80C5018
:1001F00048BF0CC05DF804EB890028BF40F8042B11
:1002000008BF704748BF20F8022B11F0804F18BF7D
:1002100000F8012B7047704770477047754600F033
:100220002BF8AE4605006946534620F00700854688
:1002300018B020B5FFF7B6FFBDE820404FF000062C
:100240004FF000074FF000084FF0000B21F00701BE
:10025000AC46ACE8C009ACE8C009ACE8C009ACE801
:10026000C0098D46704710B50446AFF300802046A4
:10027000BDE81040FFF781BF004870478C060020A2
:1002800001491820ABBEFEE7260002007047704708
:1002900070B506460D46002400BF04E0305D0649F7
:1002A0000855601CC4B2AC42F8D3A9B2002202487F
:1002B00002F004FC70BD00004C06002010B500F0F8
:1002C0002EF802F0D3FA00F08AF810BD00BFFEE766
:1002D00010B5024800F008F910BD0000BC00002075
:1002E00010B5024800F000F910BD00000001002028
:1002F00030B590F840500124AC40C56B6C60046888
:1003000063604468102C04D10468A2600468E16052
:1003100003E00468A1600468E26030BD704710B576
:100320000121002000F024F810BD000070B5044643
:100330000025012C01DB012516E004EB44000B49EC
:1003400001EB8000807A022801D002250CE004EB4A
:100350004402064B03EB8202118904EB440203EBD7
:100360008202506800F0A0FB284670BD902D000866
:1003700070B504460D460026012C01DB012627E05E
:1003800004EB4400134901EB8000807A022801D07D
:1003900002261DE075B104EB44020E4B03EB820212
:1003A000118904EB440203EB82025068012200F041
:1003B00085FB0DE004EB4402064B03EB820211893E
:1003C00004EB440203EB82025068002200F076FB4B
:1003D000304670BD902D000872B600BFFEE7704732
:1003E0000146002291F82100022808D004208863E9
:1003F00000BF002081F8200000BF0120704708687E
:10040000006820F00E000B6818600868006820F093
:1004100001000B68186091F8403001209840CB6BC8
:100420005860012081F8210000BF002081F82000E1
:1004300000BF1046E2E7000070B50446002594F8BE
:100440002100022803D00420A063012548E0206891
:10045000006820F00E00216808602068006820F025
:100460000100216808601F492068884201D10120ED
:1004700026E01C4914312068884201D110201FE079
:10048000184928312068884201D1801518E01549A3
:100490003C312068884201D1801411E0114950316B
:1004A0002068884202D14FF4803009E00D49643160
:1004B0002068884202D14FF4801001E04FF0807034
:1004C000084908394860012084F8210000BF002055
:1004D00084F8200000BF606B10B12046616B884734
:1004E000284670BD0800024070B50446E06B056800
:1004F0002068066894F840100420884028400028AE
:1005000046D006F00400002842D02068006800F0C1
:10051000200028B92068006820F0040021680860E5
:1005200057492068884201D1042027E054491431FA
:100530002068884201D1402020E0514928312068BC
:10054000884201D1001519E04D493C3120688842AC
:1005500002D14FF4804011E049495031206888426F
:1005600002D14FF4802009E0454964312068884277
:1005700002D14FF4800001E04FF08060404908391B
:100580004860E06A00287AD02046E16A884776E031
:1005900094F84010022088402840A0B306F00200E2
:1005A00088B32068006800F0200040B92068006827
:1005B00020F00A0021680860012084F821003049F9
:1005C0002068884201D1022028E02D49143120689A
:1005D000884201D1202021E0294928312068884221
:1005E00001D140151AE026493C312068884202D1E9
:1005F0004FF4005012E0224950312068884203D164
:100600004FF400300AE017E01D4964312068884249
:1006100002D14FF4001001E04FF000701849083982
:10062000486000BF002084F8200000BFA06A30B3FB
:100630002046A16A884722E094F8401008208840AC
:100640002840E0B106F00800C8B12068006820F03A
:100650000E002168086094F8401001208840E16B8A
:1006600048600120A06384F8210000BF002084F8C6
:10067000200000BF206B10B12046216B884770BD61
:10068000080002400146002209B901207047164BBC
:100690000868C01A1423B0FBF3F080000864124805
:1006A0000838C863022081F821000868026843F610
:1006B000F0708243D1E901031843CB6818430B69FA
:1006C00018434B6918438B691843CB69184302439D
:1006D0000868026000208863012081F82100002062
:1006E00081F8200000BFD1E7080002402DE9F04169
:1006F00004460D4616461F464FF0000800BF94F80A
:100700002000012802D10220BDE8F081012084F8F8
:10071000200000BF94F8210001282CD1022084F889
:1007200021000020A0632068006820F001002168FB
:1007300008603B46324629462046FFF7D9FDE06A6D
:1007400030B12068006840F00E00216808600BE0BE
:100750002068006820F004002168086020680068B4
:1007600040F00A00216808602068006840F001003D
:100770002168086006E000BF002084F8200000BF68
:100780004FF002084046BFE72DE9F8470346002234
:1007900094466EE14FF0010808FA02F4D1F80080A7
:1007A00008EA0400A0427DD1DFF8DCA2D1F8048081
:1007B000A8EB0A09D0453AD014DCB8F1030F50D0A9
:1007C00009DCB8F1000F31D0B8F1010F1CD0B8F13D
:1007D000020F49D120E0B8F1110F18D0B8F1120F73
:1007E00042D11EE0B9F5881F25D006DCB9F5803F5F
:1007F00020D0B9F5801F37D11AE0B9F5001F18D005
:10080000B9F5041F30D117E0D1F80CC02DE0D1F8B4
:100810000C8008F1040C28E0D1F80C8008F1080CD9
:1008200023E0D1F80C8008F10C0C1EE000BF00BFE3
:1008300000BF00BF00BF00BFD1F80880B8F1000FB3
:1008400002D14FF0040C0BE0D1F80880B8F1010F91
:1008500003D14FF0080C1C6102E04FF0080C5C6102
:1008600003E04FF0000C00E000BF00BFFF2801D8FC
:10087000984601E003F104084646FF2802D84FEAF3
:10088000820803E0A2F108084FEA88084746D6F834
:1008900000804FF00F0909FA07F928EA09080CFA55
:1008A00007F900E088E048EA0908C6F80080D1F8B6
:1008B000048008F08058B8F1805F7DD100BFDFF878
:1008C000CC81D8F8188048F00108DFF8C091C9F849
:1008D0001880C846D8F8188008F00108CDF80080C4
:1008E00000BF00BF4FEAB9384FEA920958F82950C3
:1008F0004FEA82784FEA18794FF00F0808FA09F8A2
:1009000025EA0805DFF88881434502D14FF0000849
:1009100016E0DFF88081434502D14FF001080FE077
:10092000DFF87481434502D14FF0020808E0DFF898
:100930006C81434502D14FF0030801E04FF00408F9
:100940004FEA82794FEA197908FA09F848EA050569
:10095000DFF84C814FEA920948F82950D1F8048019
:1009600008F48018B8F5801F0AD1DFF83881D8F86C
:10097000008048EA0008DFF82C91C9F8008009E0FF
:10098000DFF82081D8F8008028EA0008DFF8149109
:10099000C9F80080D1F8048008F40018B8F5001FE9
:1009A00010D1DFF8008108F10408D8F8008048EA87
:1009B0000008DFF8F09000E05AE009F10409C9F8F6
:1009C00000800DE0DFF8DC8008F10408D8F8008032
:1009D00028EA0008DFF8CC9009F10409C9F8008082
:1009E000D1F8048008F40038B8F5003F0ED1DFF8E4
:1009F000B480A8F10408D8F8008048EA0008DFF8BD
:100A0000A490A9F10409C9F800800DE0DFF89480F2
:100A1000A8F10408D8F8008028EA0008DFF88490DC
:100A2000A9F10409C9F80080D1F8048008F48038DD
:100A3000B8F5803F0ED1DFF86C80A8F10808D8F82F
:100A4000008048EA0008DFF85C90A9F10809C9F8BD
:100A500000800DE0DFF84C80A8F10808D8F800808D
:100A600028EA0008DFF83C90A9F10809C9F80080DD
:100A7000521CD1F8008028FA02F8B8F1000F7FF478
:100A800089AEBDE8F8870000000011100010024098
:100A900000080140000C014000100140001401401A
:100AA000080001400804014010B5C26821EA0203B1
:100AB00002EA010443EA0443036110BD0AB1016183
:100AC00001E00B04036170470148006870470000B3
:100AD00000000020034800680349097808440149E0
:100AE00008607047000000200800002010B508488A
:100AF000006840F0100006490860032000F0DCF8B0
:100B00000F2000F007F800F05FF8002010BD000093
:100B1000002002402DE9F04188B004460027B84685
:100B2000002600BF2348C06940F002002149C86187
:100B30000846C06900F00200019000BF00BF02A992
:100B400003A800F093F9069F1FB900F0B7F9054616
:100B500002E000F0B3F945001748B5FBF0F0A0F152
:100B6000010816481649086040F2E7311448C16090
:100B7000C0F80480002101618160816100F06CFC9B
:100B8000064696B90E4800F0BDFC06466EB91D201B
:100B900000F044F8102C07D2002221461D2000F05E
:100BA0004DF80848046000E00126304608B0BDE872
:100BB000F08100000010024040420F00000400409D
:100BC000440100200400002008B500BF11488069DE
:100BD00040F001000F4988610846806900F001007B
:100BE000009000BF00BF00BF0846C06940F08050C1
:100BF000C8610846C06900F08050009000BF00BF87
:100C000000BF0549486820F0E06040F0007048608F
:100C100000BF08BD00100240000001400146084628
:100C2000002809DB00F01F0301229A4043099B00C2
:100C300003F1E023C3F8002100BF70472DE9F05F06
:100C400080460D461646002701F0FCFF0746394650
:100C50002A46334601F00700C0F1070ABAF1040F33
:100C600002D94FF0040A01E0C0F1070AD14600F1B1
:100C7000040ABAF1070F02D24FF0000A01E0A0F116
:100C8000030AD4464FF0010A0AFA09FAAAF1010A46
:100C90000AEA020A0AFA0CFA4FF0010B0BFA0CFBF3
:100CA000ABF1010B0BEA030B4AEA0B042146404669
:100CB00001F0D0FFBDE8F09F00BF00F00702064B37
:100CC00019684FF6FF031940044B0B4343EA022116
:100CD000014B196000BF70470CED00E00000FA0501
:100CE00070B504460D460CB9012070BD5A48006825
:100CF00000F00700A8420ED25748006820F0070015
:100D00002843554908600846006800F00700A842DB
:100D100001D00120E9E7207800F0020002281DD16F
:100D2000207800F00400042805D14C48406840F4C5
:100D3000E0604A494860207800F00800082805D1A2
:100D40004648406840F46050444948604348406821
:100D500020F0F000A168084340494860207800F086
:100D6000010078B36068012806D13C48006800F4AF
:100D7000003090B90120B8E76068022806D13748F2
:100D8000006800F0007040B90120AEE73348006809
:100D900000F0020008B90120A7E73048406820F0C1
:100DA0000300616808432D494860FFF78DFE064641
:100DB00009E0FFF789FE801B41F28831884202D9A1
:100DC000032092E707E02548406800F00C006168C6
:100DD000B0EB810FEDD12048006800F00700A84279
:100DE0000ED91D48006820F0070028431A49086002
:100DF0000846006800F00700A84201D0012074E70F
:100E0000207800F00400042807D11448406820F43A
:100E1000E060E168084311494860207800F008006C
:100E2000082808D10D48406820F46050216940EA44
:100E3000C1000A49486000F061F808494968C1F3F7
:100E40000311074A515CC84006490860064800681B
:100E5000FFF760FE002048E700200240001002403B
:100E6000F62C00080C000020040000200F22026075
:100E70000D4A526802F0030242600B4A526802F0C7
:100E8000F0028260084A526802F4E062C260064AD8
:100E9000526802F46052D2080261044A126802F0F9
:100EA00007020A6070470000001002400020024064
:100EB00001480068704700000C00002000B5FFF7F3
:100EC000F7FF04494968C1F30221034A515CC84055
:100ED00000BD000000100240062D000800B5FFF71D
:100EE000E7FF04494968C1F3C221034A515CC84085
:100EF00000BD000000100240062D000870B5002162
:100F00000022002400230020134D696801F00C0525
:100F1000F5B1042D02D0082D19D101E00F4819E0D8
:100F20000F4DC1F38346AB5D01F4803555B10A4DD9
:100F30006D68C5F340450B4E725D084D5D43B5FBD2
:100F4000F2F402E0084D03FB05F4204602E000BF86
:100F5000024800BF00BF70BD0010024000127A00BE
:100F6000E42C0008F42C000800093D00F8B5044604
:100F70000CB90120F8BD207800F00100002878D0DD
:100F8000F848406800F00C0004280CD0F548406890
:100F900000F00C00082811D1F248406800F48030BD
:100FA000B0F5803F0AD1EF48006800F40030002817
:100FB0005FD0606800285CD10120DBE700BF60687B
:100FC000B0F5803F06D1E748006840F48030E5493D
:100FD000086028E0606858B9E248006820F4803072
:100FE000E04908600846006820F4802008601AE0A4
:100FF0006068B0F5A02F0BD1DA48006840F480207B
:10100000D84908600846006840F4803008600AE06B
:10101000D448006820F48030D2490860084600684F
:1010200020F48020086000BF606888B1FFF74CFDA5
:10103000054606E0FFF748FD401B642801D9032060
:1010400098E7C848006800F400300028F2D010E0AB
:10105000FFF73AFD054606E0FFF736FD401B642822
:1010600001D9032086E7BF48006800F4003000285B
:10107000F2D1207800F00200022857D1B948406828
:1010800000F00C0050B1B748406800F00C00082890
:1010900018D1B448406800F4803098B9B14800686D
:1010A00000F0020020B12069012801D0012061E791
:1010B000AC48006820F0F800616940EAC100A94925
:1010C000086033E02069E8B10120A7490860FFF714
:1010D000FBFC054606E0FFF7F7FC401B022801D9A0
:1010E000032047E79F48006800F002000028F2D084
:1010F0009C48006820F0F800616940EAC100994905
:10110000086013E0002098490860FFF7DDFC054601
:1011100006E0FFF7D9FC401B022801D9032029E78C
:101120009048006800F002000028F2D1207800F01A
:10113000080008282DD1A069B8B101208B490860AA
:10114000FFF7C2FC054606E0FFF7BEFC401B022885
:1011500001D903200EE78348406A00F0020000280E
:10116000F2D0012000F074FF13E000207F490860F6
:10117000FFF7AAFC054606E0FFF7A6FC401B022885
:1011800001D90320F6E67748406A00F00200002803
:10119000F2D1207800F00400042873D100277148B0
:1011A000C06900F0805070B900BF6E48C06940F05F
:1011B00080506C49C8610846C06900F080500090BA
:1011C00000BF00BF01276A48006800F48070B0B912
:1011D0006748006840F4807065490860FFF774FC58
:1011E000054606E0FFF770FC401B642801D9032088
:1011F000C0E65F48006800F480700028F2D000BFAD
:10120000E068012806D15748006A40F001005549BE
:10121000086227E0E06858B95248006A20F00100EF
:10122000504908620846006A20F00400086219E08C
:10123000E06805280BD14B48006A40F0040049499A
:1012400008620846006A40F0010008620AE045486A
:10125000006A20F00100434908620846006A20F055
:101260000400086200BFE068A0B1FFF72DFC05464E
:1012700009E0FFF729FC401B41F28831884202D97E
:10128000032077E622E03748006A00F002000028D9
:10129000EFD012E0FFF718FC054608E0FFF714FC5A
:1012A000401B41F28831884201D9032062E62D4873
:1012B000006A00F002000028F0D1012F05D1294872
:1012C000C06920F080502749C86100BFE069C8B3F9
:1012D0002448406800F00C00082860D0E06902282B
:1012E00048D1002020490866FFF7EEFB054606E0DE
:1012F000FFF7EAFB401B022801D903203AE6194810
:10130000006800F000700028F2D1206AB0F5803F3C
:1013100007D11448406820F40030A16808431149FF
:101320004860D4E9080108430E49496821F4741162
:1013300008430C49486001200B490866FFF7C4FBCD
:10134000054607E03DE0FFF7BFFB401B022801D93F
:1013500003200FE60348006800F000700028F2D078
:101360002FE0000000100240000042428004424290
:1013700000700040002014490866FFF7A5FB0546F1
:1013800006E0FFF7A1FB401B022801D90320F1E58D
:101390000E48006800F000700028F2D111E0E0690A
:1013A000012800D1E6E50948466806F48031206A44
:1013B000814204D106F47011606A814201D001209B
:1013C000D8E50020D6E500000000424200100240AF
:1013D0007047704730B502460B4600BF92F83C009C
:1013E000012801D1022030BD012082F83C0000BF5D
:1013F000022082F83D00106844681068816824F07B
:1014000070041868044310684460104D1068A842C6
:101410000BD01068B0F1804F07D00D4D1068A84276
:1014200003D00C4D1068A84205D121F08001586806
:10143000014310688160012082F83D0000BF002058
:1014400082F83C0000BF00BFCDE70000002C014047
:10145000000400400008004010B504460CB901200B
:1014600010BD94F83D0028B9002084F83C002046C7
:1014700000F026F8022084F83D00211D206800F0CD
:101480004DFE012084F8460000BF84F83E00012193
:101490003F200155402001554120015500BF00BFAC
:1014A000012084F842004320015544200155452085
:1014B000015500BF012084F83D000020D0E7000066
:1014C00038B504460D492068884215D100BF0C4844
:1014D000C06940F004000A49C8610846C06900F0CC
:1014E0000400009000BF00BF002211461E20FFF73D
:1014F000A5FB1E20FFF792FB38BD0000000800404E
:1015000000100240014691F83D00012801D0012061
:101510007047022081F83D000868C06840F0010073
:101520000B68D860124B086898420BD00868B0F17D
:10153000804F07D00F4B0868984203D00E4B0868C5
:1015400098420CD10868806800F00702062A0CD087
:101550000868006840F001000B68186005E0086842
:10156000006840F001000B6818600020D0E7000020
:10157000002C014000040040000800402DE9F0412B
:1015800004460D46002700BF94F83C00012802D114
:101590000220BDE8F081012084F83C0000BF022059
:1015A00084F83D002068866826F0770626F47F469A
:1015B000206886602868502833D00CDC202850D062
:1015C00004DC00284BD0102851D149E0302849D004
:1015D00040284CD139E060282DD0702807D0B0F5D4
:1015E000805F03D0B0F5005F41D10DE041E0D5E967
:1015F00002136A68206800F0D3FD2068866846F010
:1016000077062068866034E0D5E902136A682068AE
:1016100000F0C6FD2068806840F480402168886042
:1016200027E0EA686968206800F0CEFD5021206854
:1016300000F0C1FD1DE0EA686968206800F0D7FD90
:101640006021206800F0B7FD13E0EA68696820684F
:1016500000F0BAFD4021206800F0ADFD09E000BFB8
:1016600000BF00BF2968206800F0A5FD01E0012748
:1016700000BF00BF012084F83D0000BF002084F8B7
:101680003C0000BF384684E7704770B504462068C8
:10169000C5682068066906F00200022819D105F025
:1016A0000200022815D1401F21680861012020771F
:1016B0002068806900F0030018B12046FFF7E4FFBE
:1016C00005E0204600F097F8204600F095F800204D
:1016D000207706F00400042819D105F0040004283E
:1016E00015D1C043216808610220207720688069F5
:1016F00000F4407018B12046FFF7C6FF05E0204611
:1017000000F079F8204600F077F80020207706F006
:101710000800082819D105F00800082815D1C04391
:1017200021680861042020772068C06900F0030068
:1017300018B12046FFF7A8FF05E0204600F05BF84F
:10174000204600F059F80020207706F010001028FD
:1017500019D105F01000102815D1C0432168086187
:10176000082020772068C06900F4407018B1204636
:10177000FFF78AFF05E0204600F03DF8204600F024
:101780003BF80020207706F0010048B105F0010089
:1017900030B16FF0010021680861204600F02EF89A
:1017A00006F08000802809D105F08000802805D14E
:1017B000C043216808612046FFF70AFE06F040009A
:1017C000402809D105F04000402805D1C0432168D8
:1017D0000861204600F01EF806F02000202809D1FC
:1017E00005F02000202805D1C0432168086120466B
:1017F000FFF7EFFD70BD70477047000010B504465D
:1018000003492068884201D1FFF764F910BD000048
:10181000000400407047704770B5044600252068FA
:101820004069C0F3C01594F84100212817D1B5B123
:1018300000BF00BF2168143151E8001F21F0800073
:101840002168143141E80002002AF3D100BFA06BE7
:1018500010B1A06BFEF7C4FD204600F00DFE20681D
:101860004069C0F3801594F84200222817D1B5B121
:1018700000BF00BF2168143151E8001F21F0400073
:101880002168143141E80002002AF3D100BFE06B67
:1018900010B1E06BFEF7A4FD204600F0A7FD00208C
:1018A00070BD70472DE9F84F044620680568206830
:1018B000C668206847694FF00009CA4605F00F095D
:1018C000B9F1000F0AD105F0200038B106F0200070
:1018D00020B1204600F0E3FDBDE8F88FB9F1000F1C
:1018E0007BD007F0010018B906F49070002874D07E
:1018F00005F0010030B106F4807018B1606C40F062
:101900000100606405F0040030B107F0010018B177
:10191000606C40F00200606405F0020030B107F036
:10192000010018B1606C40F00400606405F008002C
:1019300048B106F0200010B907F0010018B1606C42
:1019400040F008006064606C002845D005F020007D
:1019500028B106F0200010B1204600F0A0FD20685C
:101960004069C0F3801A606C00F0080010B9BAF149
:10197000000F2CD0204600F039FD2068406900F0AF
:10198000400000B300BF00BF2168143151E8001FC0
:1019900021F040002168143141E80002002AF3D10F
:1019A00000BFE06B50B17748E16B4863E06BFEF736
:1019B00043FD88B1E06B416B88470DE02046FFF79F
:1019C00070FF09E009E02046FFF76BFF04E02046C6
:1019D000FFF767FF002060647EE7206B012877D166
:1019E00005F01000002873D006F010000028FAD08F
:1019F00000BF0020009020680068009020684068C8
:101A0000009000BF00BF2068406900F0400000283F
:101A10005FD0E06B006840681FFA80F8B8F1000FF3
:101A200055D0A08D404552DDA4F82E80E06B806932
:101A3000202843D000BF00BF21680C3151E8001FAF
:101A400021F4807021680C3141E80002002AF3D1B2
:101A500000BF00BF00BF2168143151E8001F21F012
:101A600001002168143141E80002002AF3D100BFCF
:101A700000BF00BF2168143151E8001F21F0400071
:101A80002168143141E80002002AF3D100BF202070
:101A900084F842000020206300BF00BF21680C31A1
:101AA00051E8001F21F0100021680C3141E80002CC
:101AB000002AF3D100BFE06BFEF792FC02206063C6
:101AC000A08DE28D801A81B22046FFF7A4FE03E7C5
:101AD00042E0A08DE18D401A1FFA80F8E08DD0B36E
:101AE000B8F1000F37D000BF00BF21680C3151E8BA
:101AF000001F21F4907021680C3141E80002002A97
:101B0000F3D100BF00BF00BF2168143151E8001FAE
:101B100021F001002168143141E80002002AF3D1CC
:101B200000BF202084F842000020206300BF00BFD7
:101B300021680C3151E8001F21F0100021680C31A0
:101B400041E80002002AF3D100BF02206063414651
:101B50002046FFF760FEBFE605F0800030B106F0DA
:101B6000800018B1204600F0FBFDB5E605F040000E
:101B700030B106F0400018B1204600F06DFCABE635
:101B800000BFA9E64B22000810B504460CB901209D
:101B900010BDA06900B100E000BF94F8410028B971
:101BA000002084F84000204600F02AF8242084F821
:101BB00041002068C06820F400502168C8602046B9
:101BC00000F0ECFC2068006920F490402168086176
:101BD0002068406920F02A00216848612068C068B8
:101BE00040F400502168C86000206064202084F820
:101BF000410084F842000020606300BFC8E7000095
:101C000010B586B004460020029003900490059021
:101C100037492068884268D100BF3648C06940F41F
:101C200000303449C8610846C06900F400300190B2
:101C300000BF00BF00BF0846806940F00400886113
:101C40000846806900F00400019000BF00BF042036
:101C50000290022003900320059002A92648FEF777
:101C600093FD0820029000200390049002A92248CE
:101C7000FEF78AFD214822490860002048600021C3
:101C80001F4881608021C160002101614161816143
:101C9000C161FEF7F7FC08B1FEF79EFB00BF1848D4
:101CA000E063446200BF15481430164908601020F4
:101CB00048600021134881608021C16000210161DA
:101CC00041618161C161FEF7DDFC08B1FEF784FB73
:101CD00000BF0C48A063446200BF002211462620CA
:101CE000FEF7ACFF2620FEF799FF06B010BD0000FE
:101CF0000044004000100240000801406C00024017
:101D0000BC0000200001002070B504460D461646B8
:101D100094F8420020280BD105B10EB9012070BD06
:101D20000020206332462946204600F0B5FCF6E745
:101D30000220F4E770477047F7B50446154694F85B
:101D40004100202836D1019800B10DB90120FEBD17
:101D500001982062A584E58400206064212084F835
:101D600041001548A16B88621448A16BC8621448F1
:101D7000A16B08630020A16B486301AE23681A1DA4
:101D800031682B46A06BFEF7B1FC6FF04000216874
:101D9000086000BF00BF2168143151E8001F41F006
:101DA00080002168143141E80002002AF3D100BF0D
:101DB0000020CCE70220CAE787230008DF230008C1
:101DC0005F2200087047704700BFFEE708B500BFFC
:101DD0000E48406940F001000C49486108464069DE
:101DE00000F00100009000BF00BF0022114610204B
:101DF000FEF724FF1020FEF711FF002211461120EC
:101E0000FEF71CFF1120FEF709FF08BD001002407D
:101E100000B585B00020019002900390049000BFAF
:101E20001D48806940F010001B49886108468069A0
:101E300000F01000009000BF00BF00BF084680699E
:101E400040F0200088610846806900F02000009082
:101E500000BF00BF00BF0846806940F004008861F1
:101E60000846806900F00400009000BF00BF002217
:101E70004FF400510948FEF721FE4FF40050019045
:101E800001200290002003900220049001A9034841
:101E9000FEF77AFC05B000BD0010024000100140C2
:101EA00000B587B000200390049005900690019043
:101EB0000290144814490860082048600021124824
:101EC000816041F63F71C160002101618161FFF7CE
:101ED000C3FA08B1FEF780FA4FF48050039003A9CB
:101EE0000948FFF74BFB08B1FEF776FA0020019096
:101EF000029001A90448FFF76DFA08B1FEF76CFAE9
:101F000007B000BD000800402C00002010B50B48B1
:101F10000B4908604FF4E1304860002108488160B7
:101F2000C16001610C21416100218161C161FFF744
:101F30002BFE08B1FEF750FA10BD0000004400402F
:101F40007400002000BFFEE700BFFEE7FEF7B6F911
:101F5000FEF79DF900F091F8002000BF10E00B495A
:101F6000496801EB00118968084A926802EBC002D7
:101F700051600021054A926802F83010411CC8B235
:101F8000024909788142EADC70470000180000200D
:101F900010B5002400BF11E00B48806810F8340031
:101FA00050B100200849896801F8340006494968A1
:101FB00001EB0411C8688047601CC4B20248007875
:101FC000A042E9DC10BD00001800002000201849E4
:101FD0000968491C164A116000BF23E01549896849
:101FE00001EBC0014968491C124A926802EBC00229
:101FF00051601049896801EBC00149680D4A526877
:1020000002EB0012526891420AD30121094A9268F8
:1020100002F830100021074A926802EBC0025160BA
:10202000411CC8B2034909788142D7DC70470000DF
:1020300010000020180000207047000010B5024872
:10204000FFF760FA10BD00002C0000207047000070
:1020500008B508490968C9084FF47A72B1FBF2F172
:102060004143009100BF00BF00994A1E0092002921
:10207000F9D108BD0C0000207047FFF76DFFFFF796
:10208000DBFFFFF7DBFF01E0FFF782FFFCE77047B4
:1020900000B58FB0282105A8FEF796F814216846F0
:1020A000FEF792F8012005900004069000200790AA
:1020B0000120099002200C90C1030D914FF4E01112
:1020C0000E9105A8FEF752FF08B1FEF785F90F2023
:1020D000009002200190002002904FF48060039055
:1020E0000020049002216846FEF7FAFD08B1FEF7D1
:1020F00073F90FB000BD704710B50248FFF7C5FA7D
:1021000010BD00004401002010B50348FFF7BDFAE0
:10211000FFF75CFF10BD00002C00002010B5026826
:102120001C4B984208D0B0F1804F05D01A4B984212
:1021300002D01A4B984203D122F070024B681A4326
:10214000144B984208D0B0F1804F05D0124B984202
:1021500002D0124B984203D122F44072CB681A434A
:1021600022F080034C6943EA040202608B68C36278
:102170000B688362074B984201D10B69036301230B
:102180004361036903F001031BB1036923F00103F9
:10219000036110BD002C0140000400400008004015
:1021A00030B50C46816821F47F4142EA032525437E
:1021B0002943816030BD0A46816821F0700142F0F8
:1021C000070319438160704730B50B461446026A15
:1021D000056A25F001050562816921F0F00141EAF7
:1021E000041122F00A021A438161026230BD30B547
:1021F0000B461446026A056A25F0100505628169DE
:1022000021F4704141EA043122F0A00242EA0312B3
:102210008161026230BD000002480068401C014933
:1022200008607047140000207047704710B500F038
:1022300099FB10BD704710B50020FEF777F810BD70
:10224000704710B500F034FB10BD70B505466C6AE0
:102250000020E085E0842046FFF723FB70BD70B5C9
:1022600006460025746A20684069C0F3C01594F8DA
:102270004100212805D125B10020E084204600F04E
:10228000FBF820684069C0F3801594F842002228CA
:1022900005D125B10020E085204600F0A7F8606C4C
:1022A00040F0100060642046FFF7FBFA70BD70B587
:1022B00005466C6A2868006800F02000002842D1BA
:1022C000E08500BF00BF21680C3151E8001F21F4F8
:1022D000807021680C3141E80002002AF3D100BF70
:1022E00000BF00BF2168143151E8001F21F0010038
:1022F0002168143141E80002002AF3D100BF00BF79
:1023000000BF2168143151E8001F21F0400021680E
:10231000143141E80002002AF3D100BF202084F8E4
:102320004200206B01280ED100BF00BF21680C3194
:1023300051E8001F21F0100021680C3141E8000233
:10234000002AF3D100BF00206063206B012804D174
:10235000A18D2046FFF75FFA02E02046FFF7EAFC76
:1023600070BD70B505466C6A01206063206B012862
:1023700005D1A08D41082046FFF74DFA02E0204626
:10238000FFF7D9FC70BD70B505466C6A2868006817
:1023900000F02000F8B90020E08400BF00BF2168F1
:1023A000143151E8001F21F080002168143141E808
:1023B0000002002AF3D100BF00BF00BF21680C312A
:1023C00051E8001F41F0400021680C3141E8000253
:1023D000002AF3D102E02046FFF7F4FC70BD70B58F
:1023E0000446656A2846FFF7EEFC70BD00BF00BFDB
:1023F00002680C3252E8002F22F4907102680C320D
:1024000042E80013002BF3D100BF00BF00BF0268F9
:10241000143252E8002F22F001010268143242E81F
:102420000013002BF3D100BF016B01290ED100BFB7
:1024300000BF02680C3252E8002F22F0100102683F
:102440000C3242E80013002BF3D100BF202180F8AA
:10245000421000210163704710B504462068C0682F
:1024600020F040002168C860202084F84100204608
:10247000FFF7A8FC002010BD00BF00BF02680C32AF
:1024800052E8002F22F0C00102680C3242E800132B
:10249000002BF3D100BF202180F841107047F8B520
:1024A000044694F84200222875D1A068B0F5805FF8
:1024B0000CD1206950B90025A66A20684068C0F395
:1024C00008003080A06A801CA06215E0A56A002682
:1024D000A068B0F5805F03D0A06828B9206918B95A
:1024E00020684068287004E02068406800F07F00A1
:1024F0002870A06A401CA062E08D401E80B2E0857A
:10250000002846D12068C06820F020002168C860FB
:102510002068C06820F480702168C8602068406925
:1025200020F0010021684861202084F8420000204A
:102530006063206B012826D10020206300BF00BF0C
:1025400021680C3151E8001F21F0100021680C3186
:1025500041E80002002AF3D100BF2068006800F0C3
:10256000100010280AD100BF0020009020680068E9
:10257000009020684068009000BF00BFA18D2046F9
:10258000FFF749F902E02046FFF7D4FB0020F8BD31
:1025900001E00020FBE70220F9E7000070B50446E7
:1025A0002168096921F44051E268114322681161F0
:1025B0002269A1681143626941EA02052168C9687C
:1025C00041F20C62914329432268D1602168496934
:1025D00021F44071A2691143226851612D4A21689A
:1025E000914202D1FEF77AFC01E0FEF767FC00EBB6
:1025F000C00101EB001162689200B1FBF2F100EB47
:10260000C00202EB001263689B00B2FBF3F264238A
:10261000B2FBF3F202EBC20303EB0212A1EB820165
:10262000322202EB01116422B1FBF2F101F0F00160
:1026300000EBC00202EB001263689B00B2FBF3F2F6
:102640006423B2FBF3F201EB021200EBC00101EBD9
:10265000001163689B00B1FBF3F100EBC00303EBD7
:1026600000136668B600B3FBF6F36426B3FBF6F31B
:1026700003EBC30606EB0313A1EB8301322303EB49
:1026800001116423B1FBF3F101F00F011144226841
:10269000916070BD0038014077B581B004461546A1
:1026A0000298A062A58500206064222084F8420080
:1026B0002848E16B88622848E16BC8622748E16BD3
:1026C00008630020E16B486302AE32682368191D7D
:1026D0002B46E06BFEF70AF800BF00200090206850
:1026E0000068009020684068009000BF00BF20692B
:1026F00070B100BF00BF21680C3151E8001F41F4E8
:10270000807021680C3141E80002002AF3D100BF3B
:1027100000BF00BF2168143151E8001F41F00100E3
:102720002168143141E80002002AF3D100BF00BF44
:1027300000BF2168143151E8001F41F040002168BA
:10274000143141E80002002AF3D100BF002004B098
:1027500070BD0000AF220008632300085F2200085C
:10276000014691F84100212828D18868B0F5805FA2
:102770000BD1086948B90A6A1088C0F308000B68D1
:102780005860086A801C086205E00B6A581C0862E1
:1027900018780B685860C88C401E80B2C88458B93D
:1027A0000868C06820F080000B68D8600868C068BE
:1027B00040F040000B68D860002070470220FCE722
:1027C00010B50348FFF76EF800F004F810BD0000E4
:1027D0007400002008B5204800680068C0F30010AD
:1027E000A8B300BF002000901B480068006800905C
:1027F000194800684068009000BF00BF1648FFF706
:102800000BF802201549164A127801F832001548D3
:1028100000684068C0F14000C1B21048104A127808
:1028200000EBC20041700E4800F0FAF880B90120B8
:102830000A490B4A127801F832000846084A127811
:1028400000EBC200402241680348FFF75DFA02E056
:1028500001200549087008BD740000200C06002006
:102860002A000020BC0000202800002010B500F045
:10287000A3F901200B490C4A127801F832000846EE
:10288000094A127800EBC200402241680748FFF76E
:102890003BFA06480068C06840F010000349096828
:1028A000C86010BD0C0600202A0000207400002023
:1028B00010B5002426482749097810F8310002286D
:1028C00021D1234A234B1B7802EBC3025178204AC3
:1028D000204B1B7802EBC3025068FDF7D9FC0020A7
:1028E0001B491C4A127801F8320000211848194A85
:1028F000127800EBC200417016480078401C00F0CE
:102900000700144908701448007801281FD10024DA
:102910001AE00F4810F83400A0B9104804700020E5
:102920000D49087001210A480C4A127800F832104B
:102930000A4A127800EBC200402241680848FFF7BB
:10294000E3F903E0601CC4B2082CE2D300BF10BD61
:102950000C06002029000020280000202A0000206A
:102960007400002010B52948007801284DD028486F
:102970002849097810F83100002846D02448254914
:10298000097810F8310002281AD1234890F8410044
:1029900020283AD101201E491E4A127801F832003F
:1029A00008461C4B1B7800EBC30042780846194BC5
:1029B0001B7800EBC30041681748FFF7BDF924E01E
:1029C00013481449097810F8310001281DD1124824
:1029D00090F84100202818D100200D490D4A1278A6
:1029E00001F832000B4A127801EBC2014870094825
:1029F00000F044F810B1012004490870074800783D
:102A0000012802D100200549087010BD27000020D0
:102A1000CC030020250000207400002024000020AA
:102A2000014600200B785B1C03F00702034B13F8F0
:102A300032300BB90A7000E0072070470C06002006
:102A400010B501460020082204E00B785B1C03F05F
:102A500007030B700B78084C14F8333023B1131EA6
:102A6000A2F10104E2B2F0D10B78034C14F8333038
:102A700003B1072010BD0000CC03002010B50146B3
:102A80000020082204E00B785B1C03F007030B70A6
:102A90000B78094C14F83330022B04D0131EA2F12A
:102AA0000104E2B2EFD10B78034C14F83330022B5F
:102AB00000D0072010BD0000CC0300202DE9F0411C
:102AC00005460C4616464FF000084FF47A77012E63
:102AD00036D133483349097810F8310001285DD1E7
:102AE000314890F8410020280DD100202C492D4A72
:102AF000127801F83200002129482A4A127800EBA6
:102B0000C200417008E002212548264A127800F8E8
:102B100032102548FEF780FE00BF234890F84100A0
:102B2000202803D0381EA7F10107F6D12FB1224685
:102B300029461D48FFF700F930E04FF007082DE067
:102B40001A48FFF77DFF18BB402C01D9402000E058
:102B500020461349154A127801EBC201487010490A
:102B6000124B1B7801EBC3014A780D490F4B1B78C0
:102B700001EBC3014868294600F080F802200849AB
:102B80000A4A127801F8320000200949087005E06D
:102B90000120084908700720BDE8F0814046FBE7A6
:102BA000CC03002025000020740000202600002017
:102BB0002700002024000020002000BF0FE000219B
:102BC000174A02F8301002EBC0025170154901EBB0
:102BD0008011134A02EBC0025160411CC8B20828A0
:102BE000EDD30021104A1170104A117000200FE03F
:102BF00000210F4A02F8301002EBC00251700D495B
:102C000001EB80110A4A02EBC0025160411CC8B2BC
:102C10000828EDD30021084A1170084A1170704746
:102C20000C0600200C0400202A00002029000020AF
:102C3000CC030020CC01002026000020250000202D
:102C400000BFFEE702480068C0F3022070470000A2
:102C50000CED00E010B5002804DB0A07130E054A4E
:102C6000135406E00A07140E034A00F00F031B1F5B
:102C7000D45410BD00E400E018ED00E070B505E0AC
:102C800011F8015B00F8015B551EAAB2002A03DDB2
:102C900000F00305002DF3D103460C4603E020CCE1
:102CA00020C3151FAAB2042AF9DA1846214603E008
:102CB00011F8015B00F8015B151EA2F10106B2B22A
:102CC000F6D170BDFDF712FFFFF7E2F9FFF7A0F8AC
:102CD000FFF77CF8FFF71AF9FFF7E2F8FFF736F98C
:102CE00000BFFEE702030405060708090A0B0C0DE6
:102CF0000E0F101001020000000000000000010291
:102D00000304060708090000000001020304000094
:102D10000000000001000000000000002D2200085B
:102D20000100000005000000000000004322000830
:102D3000020000000A000000000000002B22000832
:102D4000030000001400000000000000352200080D
:102D500004000000320000000000000041220008D2
:102D600005000000640000000000000029220008A7
:102D700006000000F40100000000000037220008F7
:102D800007000000E803000000000000192200080E
:102D9000000000000010014000200200BC2D0008CF
:102DA000000000202C00000028010008E82D000889
:102DB0002C000020C40C00004401000800000000AA
:102DC000100000000100000000127A000000000066
:102DD0000000000008000000102D00088C010020F9
:082DE0000000000100000000EA
:04000005080000ED02
:00000001FF
